:020000040800F2
:100000000000022075030008B9030008B9030008C6
:10001000B9030008B9030008B90300080000000094
:10002000000000000000000000000000B90300080C
:10003000B903000800000000B9030008B903000874
:10004000B9030008B9030008B9030008B9030008A0
:10005000B9030008B9030008B9030008B903000890
:10006000B9030008B9030008B9030008B903000880
:10007000B9030008B9030008B9030008B903000870
:10008000B9030008B9030008B9030008B903000860
:10009000B9030008B9030008B9030008B903000850
:1000A000B9030008B9030008B9030008B903000840
:1000B000B9030008B9030008B9030008B903000830
:1000C000B9030008B9030008B9030008B903000820
:1000D000B9030008B9030008B9030008B903000810
:1000E000B9030008B9030008B9030008B903000800
:1000F000B9030008B9030008B9030008B9030008F0
:10010000B9030008B9030008B9030008B9030008DF
:10011000B9030008B9030008B9030008B9030008CF
:10012000B9030008B9030008B9030008B9030008BF
:10013000B9030008B9030008B9030008B9030008AF
:10014000B9030008B9030008B9030008B90300089F
:10015000B9030008B9030008B9030008B90300088F
:10016000B9030008B9030008B9030008B90300087F
:10017000B9030008B9030008B9030008B90300086F
:08018000B9030008B9030008EF
:1001880010B5054C237833B9044B13B10448AFF3C9
:1001980000800123237010BD280400200000000007
:1001A8002C080008084B10B51BB108480849AFF3E4
:1001B80000800848036803B910BD074B002BFBD02B
:1001C800BDE81040184700BF000000002C080008D8
:1001D8002C040020280400200000000080B487B010
:1001E80000AF7860396000237B6100233B61002306
:1001F800FB6000237B6176E07B69012202FA03F34E
:100208003B613B681A683B691340FB60FA683B69CD
:100218009A4265D17B681A687B695B00194603239B
:100228008B40DB431A407B681A607B681A683B681E
:100238001B7919467B695B0001FA03F31A437B6853
:100248001A603B681B79012B03D03B681B79022B92
:100258002ED17B689A687B695B00194603238B4023
:10026800DB431A407B689A607B689A683B685B79D5
:1002780019467B695B0001FA03F31A437B689A60AD
:100288007B685A687B699BB2194601238B40DB4324
:100298001A407B685A607B685B683A6892791146B5
:1002A8007A6992B201FA02F292B21A437B685A60F2
:1002B8007B68DA687B699BB25B00032101FA03F370
:1002C800DB431A407B68DA607B68DA683B68DB7975
:1002D80019467B695B0001FA03F31A437B68DA600D
:1002E8007B6901337B617B690F2B85D91C37BD4640
:1002F8005DF8047B704700BF80B483B000AF7860BE
:100308000B467B807B687A881A830C37BD465DF87C
:10031800047B704780B483B000AF78600B467B8065
:100328007B687A885A830C37BD465DF8047B704732
:1003380080B483B000AF78600B46FB70FB78002B6D
:1003480006D00949084B1A6B7B6813430B6306E018
:100358000549054B1A6B7B68DB4313400B630C376D
:10036800BD465DF8047B704700380240002103E079
:100378000A4B5B584350043109480A4B42189A42C9
:10038800F6D3094A02E0002342F8043B074B9A429D
:10039800F9D300F00FF800F08BF870475808000800
:1003A8000000002028040020280400204404002025
:1003B800FEE7000080B500AF114A114B1B6843F0FF
:1003C800010313600E4B00229A600D4A0C4B1B6808
:1003D80023F0847323F480331360094B094A5A606D
:1003E800074A074B1B6823F480231360044B002241
:1003F800DA6000F00BF8044B4FF000629A6080BDA1
:10040800003802401030002400ED00E080B400AF56
:10041800234A234B1B6C43F080531364214A214B1E
:100428001B6843F4404313601D4A1D4B9B6893604F
:100438001B4A1B4B9B6843F420439360184A184B94
:100448009B6843F4C0539360154B174A5A60144A8B
:10045800134B1B6843F08073136000BF104B1B687D
:1004680003F00073002BF9D0104B40F205621A60BC
:100478000B4A0B4B9B6823F003039360084A084B15
:100488009B6843F00203936000BF054B9B6803F031
:100498000C03082BF9D1BD465DF8047B704700BFFB
:1004A800003802400070004010540007003C024031
:1004B80080B582B000AF08200121FFF739FF002383
:1004C800BB710023FB7101233B714FF470433B6008
:1004D80000237B713B4638481946FFF77FFE4FF0F3
:1004E800FF3000F0BFF800F075F84FF0604000F002
:1004F800B9F84FF0604000F0B5F84FF0FF3000F069
:10050800B1F800F067F82D4800F0ACF82C4800F07E
:10051800A9F84FF0FF3000F0A5F800F0F9F800F066
:1005280059F8274800F09EF8264800F09BF84FF04D
:10053800FF3000F097F800F0EBF800F04BF8224895
:1005480000F090F81E4800F08DF84FF0FF3000F0F2
:1005580089F800F0DDF800F03DF8194800F082F85D
:100568001A4800F07FF84FF0FF3000F07BF800F0F9
:10057800CFF800F02FF8164800F074F8104800F093
:1005880071F84FF0FF3000F06DF800F0C1F800F09E
:1005980021F80B4800F066F84FF0FF2000F062F8F1
:1005A8004FF0FF3000F05EF800F0B2F802484FF468
:1005B8000041FFF7A1FE96E7000C024027EB19FF68
:1005C800A828A4FF28A89DFFD9DF1BFFFF0000FF74
:1005D8000000FFFF80B582B000AF1F23FB7100232E
:1005E8003B602BE097F907303A6822FA03F303F0EF
:1005F8000103002B05D01A484FF48041FFF77CFE19
:1006080004E017484FF48041FFF784FE14484FF484
:100618000051FFF77FFE00F06BF811484FF40051CE
:10062800FFF76AFE00F064F80D484FF40051FFF739
:1006380071FEFB79DBB2013BDBB2FB7197F9073046
:10064800002BCFDA06484FF40051FFF755FE044857
:100658004FF40051FFF75EFE0837BD4680BD00BF6E
:10066800000C024080B584B000AF78601F23FB7394
:100678002BE097F90F307A6822FA03F303F00103AD
:10068800002B05D019484FF48041FFF735FE04E0F0
:1006980016484FF48041FFF73DFE14484FF40051CF
:1006A800FFF738FE00F024F810484FF40051FFF728
:1006B80023FE00F01DF80D484FF40051FFF72AFE05
:1006C800FB7BDBB2013BDBB2FB7397F90F30002BEE
:1006D800CFDA06484FF40051FFF70EFE03484FF4F7
:1006E8000051FFF717FE1037BD4680BD000C0240D1
:1006F80080B483B000AF64237B6000BF7B685A1E60
:100708007A60002BFAD10C37BD465DF8047B704740
:1007180080B483B000AF064B7B6000BF7B685A1E75
:100728007A60002BFAD10C37BD465DF8047B704720
:10073800FFFF7F00024B13B1024800F005B8704775
:10074800000000005D07000801460020024603463D
:1007580000F016B838B5084B084DED1AAC1018BFA4
:10076800ED1805D0013C55F8043D9847002CF9D107
:10077800BDE8384000F05CB8540800085808000884
:100788002DE9F047254C064625688846D5F84841A6
:1007980092469946C4B360681F2817DC411C76B19D
:1007A80004EB8003C3F888A0D4F888510122824062
:1007B8001543022EC4F88851C3F808911ED0831C33
:1007C8006160002044F82380BDE8F087144B03B330
:1007D8004FF4C870AFF300800446D0B1D5F8483163
:1007E800002784E888003846C5F848410121C4F844
:1007F8008871C4F88C71002EE1D0D1E7D4F88C311F
:100808001A43C4F88C21DAE705F5A674C5F84841FF
:10081800C1E74FF0FF30BDE8F08700BF4808000887
:1008280000000000F8B500BFF8BC08BC9E46704741
:0C083800F8B500BFF8BC08BC9E46704735
:08084400430000000000002049
:08084C003D070008AD010008A2
:04085400890100080E
:1008580000000000EC02002054030020BC0300202C
:100868000000000000000000000000000000000080
:100878000000000000000000000000000000000070
:10088800000000004408000800000000000000000C
:100898000000000000000000000000000000000050
:1008A8000000000000000000000000000000000040
:1008B8000000000000000000000000000000000030
:1008C8000000000000000000000000000000000020
:1008D8000000000000000000000000000000000010
:1008E8000000000000000000000000000000000000
:1008F80000000000000000000100000000000000EF
:100908000E33CDAB34126DE6ECDE05000B000000B3
:1009180000000000000000000000000000000000CF
:1009280000000000000000000000000000000000BF
:1009380000000000000000000000000000000000AF
:10094800000000000000000000000000000000009F
:040000050800037577
:00000001FF
